:020000040800F2
:100000004813002495030008F9940008018B0008A8
:10001000F1940008F120000859B500080000000024
:1000200000000000000000000000000009A200081D
:100030007925000800000000999D000811A2000821
:10004000B3030008B3030008B3030008B3030008B8
:10005000B3030008B3030008B3030008B3030008A8
:10006000B3030008B3030008B3030008F920000835
:100070000921000819210008292100083921000858
:10008000B3030008B3030008B3030008B303000878
:10009000B3030008B3030008B3030008B303000868
:1000A000B3030008B3030008B3030008B303000858
:1000B000B303000819A40008B3030008B303000841
:1000C000B3030008B3030008B3030008B303000838
:1000D000B3030008B3030008B3030008B303000828
:1000E000B3030008B303000800000000B3030008D6
:1000F000B3030008B3030008B3030008B303000808
:10010000B3030008B3030008B3030008B3030008F7
:1001100079A50008E9A50008B3030008B3030008A7
:10012000B3030008B3030008B3030008B3030008D7
:10013000B3030008B3030008B3030008B3030008C7
:1001400000000000000000000000000000000000AF
:10015000B3030008B3030008B3030008B3030008A7
:10016000B3030008B3030008B3030008B303000897
:10017000B3030008B3030008B30300080000000045
:10018000B3030008B303000851A60008B303000836
:10019000B3030008B3030008B3030008B303000867
:1001A000B3030008B3030008B3030008B303000857
:1001B000B3030008B3030008B3030008B303000847
:1001C000B3030008B3030008B3030008B303000837
:1001D000B3030008B3030008B3030008B303000827
:1001E000B3030008B3030008B3030008B303000817
:1001F000B3030008B3030008B3030008B303000807
:10020000B3030008B3030008B3030008B3030008F6
:10021000B3030008B3030008B3030008B3030008E6
:10022000B3030008B3030008B30300080000000094
:10023000B3030008B303000800000000B303000884
:10024000B3030008B3030008B3030008B3030008B6
:10025000B3030008B3030008B3030008B3030008A6
:10026000B3030008B3030008B3030008B303000896
:10027000B3030008B3030008B30300080000000044
:10028000B3030008B3030008B30300080000000034
:1002900000000000B303000800F002F800F06BF863
:1002A00014A696E8000CB244B344DA4501D100F03C
:1002B00062F8BAE80F000FA696E83000A5EB040537
:1002C00004EB0607AAEB0704A7F101074FEA15158F
:1002D0004FEA3414A4F10104AC4201D300F04BF80E
:1002E00013F0010F18BFFB1A43F0010300F001F8EF
:1002F000DBE7184708D9000028D90000103A24BFCE
:1003000078C878C1FAD8520724BF30C830C144BF7A
:1003100004680C6070470000704700000023002450
:1003200000250026103A28BF78C1FBD8520728BF05
:1003300030C148BF0B60704766290CF0DF83642929
:1003400000F00481632900F05685002070471FB536
:100350000CF0C4FB01F012F80400002000210CF0A6
:100360009FFB401C6060002000210CF083FBE060DC
:100370001FBD10B510BD01F0D8FA1146FFF7E7FF19
:100380000BF0EEF801F028FD03B4FFF7F2FF03BC19
:1003900001F02CFD0A4880470A4880470A48004778
:1003A000FEE7FEE7FEE7FEE7FEE7FEE7FEE7FEE725
:1003B000FEE7FEE705480649064A074B704700007E
:1003C00099250008F9A2000899020008480D0024A8
:1003D00048130024480F0024480F002453EA020C5D
:1003E00000F069802DE9F04B4FF00006002B1FBF95
:1003F000B3FA83F503FA05F424FA05F65E4012BF5A
:100400001643B2FA82F502FA05F4C5F120051EBFC3
:1004100022FA05FC44EA0C04203556EA044C4FEA63
:10042000144418BF641C4FF000084FF000099042BC
:1004300071EB030C39D3002919BFB1FA81F701FA26
:1004400007F6B0FA80F700FA07F6C7F120071EBFDB
:1004500020FA07FC46EA0C062037B6FBF4FCA7EBB3
:100460000507103F07F01F0BCBF120062CFA06F60C
:100470000CFA0BFB44BFB3460026202FA4BF5E46F8
:100480004FF0000B5BEA060C08BF4FF0010B19EBB5
:100490000B0948EB0608ABFB027C06FB02CC0BFB0E
:1004A00003CCC01B71EB0C01C1E70B460246414671
:1004B0004846BDE8F08B13B5084318BF4FF0FF3036
:1004C0000146AFF30080BDE81C4070470FB41CB577
:1004D000084B06AA7B4469460090059800F069FC29
:1004E00004460020694600F077FC20461CBC5DF8FD
:1004F00014FB00000109000070B50C460546012AF6
:1005000005D02878800600D5EA69002302E001239F
:1005100005E05B1C934202D2E05C0028F9D1A86997
:10052000E618C01AA861286A184428622846AFF362
:10053000008004E0D5E9012114F8010B9047B44292
:10054000F8D32846AFF3008070BD00002DE9F041DC
:100550000646002410687529314616A510D0AFF361
:100560000080002802DA404213A507E031688A07BC
:1005700001D512A502E0490704D511A5012401E027
:10058000AFF3008000210A2206F1240709E0B0FB46
:10059000F2FCB0FBF2F302FB1C003030785418463A
:1005A000491C0028F3D123462A463046BDE8F041D5
:1005B00000F092B9000000002D0000002B000000A8
:1005C000200000002DE9F0474FF0000A894604465C
:1005D000C0F820A02046E1688847002876D025286A
:1005E00006D0D4E901219047206A401C2062F1E73F
:1005F000E168204600258847C4F81CA0064600276D
:10060000C4F818A02A2E09D030460CF0E4F938B30B
:1006100004EB8708303EC8F8186019E059F8041B4D
:10062000204604EB87029161E1688847012F064666
:1006300018D1E069002820DA25F020051DE0D8F85F
:10064000180000EB800006EB40003038C8F81800B6
:100650002046E168884706460CF0BDF90028EED137
:10066000012F0AD02E2E08D12046E16888477F1C32
:100670000646022F45F02005C4DBA069002803DAF6
:10068000404245F00105A061E80701D025F01005C2
:10069000B6B1A6F14100192802D8203645F400650C
:1006A0004A463146204625604D46FFF745FE58B183
:1006B000012806D0ED1D25F0070000F1080989E7A3
:1006C00004E005F1040985E730468AE7206ABDE8C1
:1006D000F08700000FB400B58DB010A9099000910B
:1006E0000B904FF0FF300A9000200C9006487844A1
:1006F0000690064878446A4607900F9909A800F0CA
:1007000009FE0DB05DF814FB430C00005B0C00000B
:100710002DE9FF5F4FF0000899461446464691695F
:10072000D2E901A7DDF838B001988847054659EAB3
:100730000B0005D009E0A1690198761C88470546A1
:10074000216A284688470028F5D1681C03D05FEA53
:10075000CA7005D015E04FF0FF3004B0BDE8F09F3F
:100760002068011D2160D0F800800AE05FEACA70AD
:1007700001D108F8015BA169761C01987F1E8847AA
:100780000546002F1ADD681C18D0B9F1000F0DD0F6
:10079000E81705EBD060421120F01F0059F8221035
:1007A0002A1A012090400142E0D107E0BBF1000F7E
:1007B000DCD12846216A88470028D7D0E169019812
:1007C0008847BBF1000F07D1002E05DD5FEACA7034
:1007D00002D1002188F80010A068B84203DDBBF107
:1007E000000F03D017B16FF00100B6E73046B4E751
:1007F0004FF0000200B5134694469646203922BFBA
:10080000A0E80C50A0E80C50B1F12001BFF4F7AF04
:10081000090728BFA0E80C5048BF0CC05DF804EBE6
:10082000890028BF40F8042B08BF704748BF20F854
:10083000022B11F0804F18BF00F8012B7047000009
:1008400030B44FF0013C50F8042BCCFA52F451F87C
:10085000043BD51A20D1FCB950F8042BCCFA52F441
:1008600051F8043BD51A17D1B4B950F8042BCCFA7F
:1008700052F451F8043BD51A0ED16CB950F8042B40
:10088000CCFA52F451F8043BD51A05D1002CDAD039
:1008900030BC4FF00000704729BAB1FA81F111F075
:1008A0001801D1F120008440F2D1CA40CB4012F0AF
:1008B000FF0213F0FF0330BCD01A70477047704737
:1008C000704710B500F05EFD006810BD10B504461D
:1008D00000F058FD046010BD2DE9F0470D46994623
:1008E0009246044600F124080168880604D5E069B0
:1008F00021F01001216000E00120A84201DD471B2A
:1009000000E00027A1697A1902EB0900081AA0612A
:100910002078C00602D42046AFF30080002608E00D
:10092000D4E901211AF806009047206A401C761C81
:1009300020624E45F4DB2078C0060AD52046AFF38E
:10094000008006E0D4E9012130209047206A401C55
:100950002062381EA7F10107F4DC07E0D4E9012189
:1009600018F805009047206A401C2062281EA5F157
:100970000105F3DC2046AFF300802078000602D5A5
:100980000220BDE8F0870120FBE72DE9FF4F0C4670
:100990001E464FF0FF378BB0D2E90001DDF86080D2
:1009A0000A908A46C1F30A5505B93D46002108461A
:1009B0004FF00000BAF1000F00F4400005DA00EB40
:1009C00080004FF4400101EA50004FEA9059B9F11C
:1009D000010F00DDB9460A9850EA4A000ED044F6ED
:1009E0001050A5F2FF3545432F14B8F1000F1ED06B
:1009F0007542291E1EDDC9F100021CE0B8F1010F8D
:100A00004FF0000001D0302103E0F24305E0215413
:100A1000401CB042FBDB30460022002121540B99E0
:100A2000C1F80880C1E900200FB0BDE8F08FBD1B00
:100A30006D1CDEE74A4600DA694206A800F002FFB4
:100A400006AB93E8070003AB83E8070050460A991A
:100A50000AF09EFF8DE80700A0F500501F380090B7
:100A60000398002D0ADD42F21F014A460844002384
:100A700003A9039068460BF049FA09E0A0F500507D
:100A80004A461F38002303A9039068460BF068FA12
:100A90008DE807000004000C03D04FF0FF30410840
:100AA00000E01046B8F1000F03D000220092154676
:100AB0001EE0751E05D400F07CFC303262556D1EC0
:100AC000F9D5B3460122084302D000227F1C04E07E
:100AD0002078302801D100227F1E002A099784D077
:100AE0001DE0112D07DA00F064FC303262556D1CF8
:100AF00050EA0102F5D1084302D00098C8B10EE0D7
:100B00000021681E05E0235C625C63542254401E91
:100B1000491C8142F7DBAB46A81B401E0990002010
:100B200004F80B000B98099AC0F80880C0E9002B64
:100B30007AE711264FF0000857E72DE9F04F884675
:100B40000446D21D22F0070191B0D1E90001CDE9A0
:100B50000A010BF051FB02460B98C00F01D02D206B
:100B600007E02068810701D52B2002E0202101EA5F
:100B7000C000032A099001D0072A05DB034641463D
:100B8000204600F065FC0BE12078800601D5E06985
:100B900000E00620B8F1650F814606D0B8F1660F77
:100BA00018D0B8F1670F70D131E00020B9F1110F02
:100BB000009001DB112301E009F101030AAA01A958
:100BC0000CA8FFF7E2FEDDE90C70002609F1010533
:100BD000834647E001204B4600904FF000470AAAA9
:100BE00001A90CA8FFF7D1FEDDE90DB00C995D4617
:100BF000002610B909F101000D18B9EB050003D466
:100C0000C0F1FF3609F10105A5EB09002BE0B9F1B0
:100C1000010F01DA4FF001090020B9F1110F009026
:100C2000484601DD112300E003460AAA01A90CA8E9
:100C3000FFF7ABFEDDE90C704D46002683462078B9
:100C400000070AD4AB4500DA5D4601A8012D04DD9A
:100C5000411911F8011C302907D04F4502DA17F16C
:100C6000040F04DA012082460FE06D1EEEE7002F2C
:100C700002DCED1B3E4403E0781CA84200DD7D1C35
:100C8000B81B00F1010A4FF000472078000703D499
:100C9000AA4501DB4FF0FF3A0021B7F1004F0DF1FB
:100CA00043088DF8431024D002202B23002F01DAB3
:100CB0007F422D230A21021EA0F1010000DC5FB15A
:100CC00097FBF1FC97FBF1F201FB1C7C17460CF142
:100CD000300C08F801CDEEE7A8F10100037021887F
:100CE000090501D5452100E06521A0F1010800F8C2
:100CF000011C09980FA9A1EB0807FF1D00B10120F5
:100D0000411901EBEA70A1693844081A401EA0613C
:100D10002078C00602D42046AFF30080099828B19D
:100D2000D4E901219047206A401C20622078C00647
:100D300022D52046AFF300801EE0002E04DBB34531
:100D400002DD01A8805D00E03020D4E90121904758
:100D5000206A401C2062761CAAF101005FEA000AAA
:100D60000AD100F00BFBC0680168405CD4E90121A6
:100D70009047206A401C2062281EA5F10105DCDC9A
:100D800007E0D4E9012118F8010B9047206A401CC4
:100D90002062381EA7F10107F3DC2046AFF3008084
:100DA000032011B041E6000001694A1C0261087885
:100DB000704700B58FB0CDE901310021059105499B
:100DC0007944CDE9031011466846FFF7FBFB0FB0ED
:100DD00000BD0000E5FFFFFF0A6802F8010B0A6092
:100DE000704710B5436913B1AFF3008001E0FFF71E
:100DF00083FB012010BD127800F124010A7000224B
:100E00004A700122EDE711684FF0FF32E9E7000078
:100E10002DE9FF4F06468BB00878FF2806D0491C05
:100E20002D2805D000244FF0000908E000200CE038
:100E30000124F8E709EB8903491C00EB4309087812
:100E4000FF28F7D114B1C9F10000814610780025C0
:100E50002C46AA4629462D2801D02B2804D1521C05
:100E60002D2813D0002082468B461078FF280FD003
:100E70004FF0000C0A21521CA5FB017804FB0181F4
:100E800005FB0C11C5194BEB0104EEE70120EAE765
:100E9000002108464FF00000BAF1000F02D000EB2D
:100EA00080004008C0F38157012F01DD4FF0FF376C
:100EB0000E9955EA040009EB01080BD04FF0020926
:100EC00018F5FA7F16DA4FEACA70002F706008DD55
:100ED000012007E04FEACA70C6E900B00FB0BDE8D4
:100EE000F08F0020306000F04DFAC0F8009018211B
:100EF000084616E0B8F5FA7F18DD002F02DAF74849
:100F0000784401E0F6487844D0E90010C6E90010C2
:100F100040EACA70706000F035FAC0F80090142101
:100F200008460FB0BDE8F04F0BF0E5BD00210846C4
:100F30004FF00000B8F10001099002DAC7F1000299
:100F400000E03A4601DAC8F1000106A800F07AFC98
:100F500006AB93E8070003AB83E8070044F23E00CA
:100F60005BEA04010090584604D144F21E012C466D
:100F70005D460091210C0904014306D10099240427
:100F800044EA15442D041039009104F07F410143D7
:100F900006D10099240244EA15642D020839009113
:100FA00004F07041014306D10099240144EA15740C
:100FB0002D01091F009104F04041014306D1009921
:100FC000A40044EA9574AD00891E009104F000412C
:100FD000084304D100986D196441401E00904FF001
:100FE00001033A466846B8F1000FCDE9014503A96F
:100FF00002DD0AF0CAFF01E00AF09DFFBAF1000F1E
:1010000004460D4601D084F00044002108464FF00C
:101010000000099940F2FF77484010F00C0F07D10B
:1010200024F00040284303D0C4F30A50B84212D140
:1010300000F0A8F9C0F80090C4F30A50B8420AD1F1
:10104000A8487844D0E90010C6E9001004F0004137
:101050000843706042E7C6E900543FE72DE9FF4FBF
:101060001F464FF0000A4FF0FF38454691B0D7E9D0
:101070000146CDF83CA000F081F9C0680168405CF1
:101080001090B96912986D1C8847396A8146884763
:101090000028F6D1B9F1FF3F0AD0002E24F4D06425
:1010A00011DDB9F12B0F08D0B9F12D0F0BD102E0F2
:1010B000404615B013E744F48064B96912986D1C7A
:1010C0008847761E8146600504A901D52D2000E0E1
:1010D0002B20002E01F1010B0DF130088DF81000CE
:1010E0003FDDB9F1690F08D0B9F1490F05D0B9F169
:1010F0006E0F02D0B9F14E0F1CD13B4601A80095EE
:1011000080E85002DDE912126FF002000BF05CFD86
:10111000C11CCED10EE0B96912986D1C884781467A
:101120001398761E44F4007405600F98401C002E3E
:101130000F9016DDB9F1300FEDD0B9F1780F02D074
:10114000B9F1580F0DD10F9801280AD13B46CDE9CE
:101150000054DDE91212001F02960BF033FDC11C92
:10116000A7D1109989453ED144F0800406E0139937
:10117000681CAAF1010A44F400740860B9696D1C86
:101180001298761E884730288146F0D02BE01099BF
:10119000894505D1200603D4761E44F0800418E06A
:1011A00048460BF018FC08B3761E0DF12302934558
:1011B000A9F1300044F4007406D20BF8010B2006AC
:1011C00007D5AAF1010003E0200602D40AF10100CC
:1011D0008246A00502D51399681C0860B969129867
:1011E0006D1C88478146002ED1DC53E0002E51DD76
:1011F000B9F1650F02D0B9F1450F4BD1A00549D522
:10120000B9696D1C1298761E24F440748847002E2C
:1012100081460CDD2B2804D0B9F12D0F07D144F401
:101220008074B96912986D1C8847761E8146E00566
:1012300001D52D2100E02B2108F8011BCDF80080FD
:1012400021E0761E0DF13901884544F400740CD27A
:10125000A9F1300010F0FF0088F8000002D10099D9
:10126000884509D908F1010806E0E00501D51E48C6
:1012700001E042F20F708246B96912986D1C8847EE
:10128000814613980560002E04DD48460BF0A3FB51
:101290000028D6D1F96912988847FF2053468BF869
:1012A000000088F8000000200A900B9004AA0CA906
:1012B0000AA8FFF7ADFDA00502D46FF00100F8E623
:1012C00014F0240F12D0E0071CD13868DDE90A12AF
:1012D000031D3B600068C0E9001213E020CD000050
:1012E00012CD0000D6CB0000F1D8FFFF0AA9684656
:1012F0000BF06AFAE00705D13868009A011D3960E1
:10130000006802602846D4E6026811441378016040
:1013100018467047D16005497944516104497944C0
:10132000116200211161114600F0D2B8EDFFFFFFFC
:101330001B010000426842B1016811F8013B23B172
:10134000521EC0E90012184670470121C160881E74
:10135000704742685AB1C368016843B983688B42D9
:1013600005D0491E521CC0E90012002070474FF002
:10137000FF30704700487047600000240048704705
:10138000800000240048704760000024B2F1200370
:101390000AD5C2F1200301FA02F120FA03F341EA6F
:1013A000030100FA02F0704700FA03F14FF0000069
:1013B000704730B5B0F10A0271F100034FEA900EA8
:1013C0004EEA817EB0EB0E0061EB91014FEA101EF8
:1013D0004EEA017E10EB0E0041EB11114FEA102E88
:1013E0004EEA016E10EB0E0041EB11214FEA104E58
:1013F0004EEA014E10EB0E0041EB1141401841F155
:1014000000014FEAD00040EA41704FEAD1014FEAB3
:10141000810444EA907410EB800544EB01046D19DB
:1014200044EB0404521BA3414FF0000348BF0A32AF
:1014300000D530BD401C41F1000130BD10B504465F
:1014400000F098FA0068005D00F0010010BD000097
:101450002DE9F0411F46044603260168072A01F4DE
:10146000006004DB08B116A505E016A503E008B18D
:1014700015A500E015A521F010002060A069C01E90
:10148000A0610FB1401EA0612046AFF300804FB1B4
:10149000D4E9012138469047206A401C2062C01CD4
:1014A000206206E0206AFAE7D4E9012115F8010B71
:1014B0009047761EF8D22046AFF30080BDE8F08159
:1014C0004E414E006E616E00494E4600696E6600E8
:1014D0002DE9F34F4FF0000A0C4656468DB001201F
:1014E0000C9001F10C000B9062690B980121904760
:1014F000051E2DD0252D2CD0216A8847C0B16269E8
:101500000B9801219047216A88470028F7D162692A
:10151000411E0B98904700E0761CA1690D98884702
:10152000216A88470028F7D1E1690D988847DBE7F1
:10153000A1690D988847A842074601D1761CD3E7D8
:10154000E1690D9888477F1C02D1BAF1000F6FD076
:101550006BE162690B9800273D46394690472A287F
:1015600004D162690B98012190470125DFF8D082F0
:1015700062690B9801219047A0F130010A290AD233
:101580004745E5DC07EB870100EB4107303FDFD43F
:1015900045F01005ECE7E90601D46FF000476C2830
:1015A0000AD04C2814D0682815D06A280DD0742889
:1015B0001CD07A281AD01DE062690B98012190474F
:1015C0006C2802D045F0040514E045F002050DE05A
:1015D00045F020050AE062690B98012190476828D0
:1015E00002D045F0080505E045F4006562690B98F6
:1015F00001219047C4E9015765283DD019DC5828DE
:101600007AD00CDC452837D004DC252826D04128A8
:101610009ED131E046282FD0472899D12CE05B2875
:1016200077D0612828D063287CD0642823D15AE061
:10163000F6E06F2848D008DC66281DD067281BD04C
:10164000692821D06E2816D127E0702845D073284C
:1016500068D0752847D078280DD14DE0A1690D9844
:101660008847252805463FF469AFE1690D9888470A
:101670006D1C3FF46AAFD8E00D9923466A466FF0BF
:1016800001000BF09DFAC5E045F0400023464FF005
:1016900000026060A80736D43EE0E8077FF447AF59
:1016A0002068011D21600068290501D506701BE72F
:1016B000290701D5068017E7A90703D5F117C0E967
:1016C000006111E706600FE745F0400023464FF048
:1016D00008026060A80716D41EE040F60E0125EA55
:1016E0000100606016E045F0400023464FF00A021A
:1016F0006060A80707D40FE045F040006060A807CD
:1017000008D5234610220D996FF00100AFF3008039
:1017100080E007E0102223460D996FF00100AFF33F
:10172000008077E04FF0000963284F46C8464B46DB
:10173000CB4602D05B2806D038E0E80601D4012071
:10174000A060012732E06269D4F80CB00B98012147
:1017500090475E2807D14FF0010949466269D4F8E5
:101760000CB00B989047216939B900210A4603ABA8
:1017700043F82120491C0829FADBD8B3216949B371
:1017800008F1010862690B98012190475D28F4D1A6
:10179000B9F1000F09D0002003A951F82020D2434D
:1017A00041F82020401C0828F7DB03AB2069002803
:1017B00020794FEA40701ED05B462246CDF800806B
:1017C000CDE901970D9900286FF0010020DAAFF301
:1017D00000801FE0C11703AA00EBD1614B1121F07B
:1017E0001F0102EB8302411A136801208840034362
:1017F0001360C7E719E00D99224600286FF0010039
:10180000009702DAAFF3008004E0FEF781FF01E009
:10181000AFF3008000280ADA401C06D10C9820B1F2
:101820004FF0FF300FB0BDE8F08F5046FAE7E90700
:1018300001D10AF1010A064400200C9054E6000090
:10184000CCCCCC0C2DE9F047814616468AB0354801
:1018500078440DC88DE80D0032487844801C03ACF4
:101860000DC884E80D0041F69B300844372190FBF9
:10187000F1F290FBF1F5A5F1800501FB12041B3C90
:1018800002D56442012000E00020DFF898A08046E5
:101890000027FA44AAF1BE0A0EE0E0070AD0324659
:1018A000684607EB470101230AEB81010AF058FB68
:1018B0008DE8070064107F1C002CEED1194F7F4487
:1018C000AE3F19E0E80715D007EB04100DF1180A38
:1018D00090E80E008AE80E00C068F04201D1981925
:1018E00008903246012306A903A80AF039FB03AB8E
:1018F00083E807006D10641C002DE3D14FF0010355
:1019000032466946B8F1000F03A802D00AF0FEFA89
:1019100001E00AF025FBC9E90001C9F808200AB076
:10192000BDE8F08744B4000070477546FFF722FD1C
:10193000AE4605006946534620F00700854618B0BC
:1019400020B5FEF737FDBDE820404FF000064FF010
:1019500000074FF000084FF0000BAC46ACE8C009A0
:10196000ACE8C009ACE8C009ACE8C00921F0070147
:101970008D46704710B5FFF701FD001D10BD00BF7B
:1019800021B100002DE9FF4F1F464FF03C0987B001
:101990004FF00042DDE9141001F10108DDF858A014
:1019A00002EA405003900020059083460546044615
:1019B0000490B969461E08988847AAF1010A029066
:1019C000BAF1000F3BDD02982E2815D0102100F04F
:1019D00013FA00282EDB4FF0010B0599014317D0B5
:1019E000B9F1000F0BDB4A46C117FFF7CFFC0543E7
:1019F0000C43A9F1040905E0012004900BE008B1B3
:101A000045F0010501200590049820B9361D02E03B
:101A1000049800B1361FB969089808F10108884791
:101A2000BBF1000FAAF1010A0290C9D00999C1F8CF
:101A30000080C5E70298702808D0502806D0F969C0
:101A400008988847BBF1000F14D04FE000200290A7
:101A50000120BBF1000F049009D0B969089808F182
:101A600001088847AAF10109B9F1000F07DCF969FB
:101A7000089888476FF001000BB0BDE8F08F2B2865
:101A800004D02D280CD14FF0FF300490B96908988C
:101A900008F101088847A9F10109B9F1000FE6DD55
:101AA000411CE4D00A2100F0A7F90028DFDB0299ED
:101AB00008F1010801EB810100EB41000290B969D6
:101AC000089888470A2100F097F9099AA9F10109B5
:101AD000B9F1000FC2F8008001DD0028E7DAF969EA
:101AE000089888470499029800FB016655EA0400AB
:101AF00004D004F04041090002D006E0039898E0C9
:101B0000A40044EA9574AD00B61E04F0004108003C
:101B100002D16D196441761E159810F0240F03D080
:101B20004FF00B095C4803E04FF028096FF07D008F
:101B30008246564507DAAAEB06018944B9F1410FFE
:101B400001DD4FF0410901200021A9F10102FFF759
:101B50001DFC024628400B462140084301D00121CC
:101B600000E00021501E029143F1FF312840214046
:101B7000084301D0012000E000200299834651EA89
:101B80000B014FD0002108464FF00000039900F4EC
:101B9000400039B100EB80004FF4400100EBD07001
:101BA00001EA60008015012802DD4FF0FF3000E0FF
:101BB00013D0401C36D0029860B3BBF1000F0CD19B
:101BC0004A4601200021FFF7E1FB2840214008435D
:101BD00001D0012000E00020E0B101204A460021B0
:101BE000FFF7D4FB034640190A4661412D1A8C4188
:101BF00011D3B9F1400F09DD159810F0240F02D070
:101C0000AAF1340603E0AAF1170600E0761C0025CD
:101C10004FF0004406E05B1E42F1FF3220EA03056C
:101C200021EA0204CAF10100B04206DA1B49039816
:101C300008430190002000900EE0039AC4F3D321E2
:101C4000E80A0A43164940EA44500A433146CDE9BE
:101C5000000268460AF06CFE159810F0240F0BD0B5
:101C60001598C00715D13868DDE90012031D3B60E7
:101C70000068C0E900120CE002A869460AF0A4FD61
:101C80001598C00705D13868029A011D39600068AF
:101C900002604046F0E6000002FCFFFF0000F07F1B
:101CA0000000F03F2DE9FF4F92461D4685B04FF0F2
:101CB0000041DDE9124BDDE914727F1E01EA4B5051
:101CC000414940F0FF4940EA0108002122F020008C
:101CD0004928049102D04E2828D04CE03BA0012690
:101CE00007C88DE80700A9690698641C88477F1E0D
:101CF000014606D41DF8060018B121F020018142EA
:101D00000BD0E96906988847032E34D0082E32D0CC
:101D10006FF0010009B0BDE8F08F761C032E01D0F2
:101D2000082EE0D1601CCAF80000DCE7A96906981B
:101D3000641C88477F1E2AD420F02000412826D129
:101D4000A9690698641C88477F1E20D420F02000D3
:101D50004E281CD1A9690698641C88477F1E48F448
:101D6000002849F48009CAF8004001D4282806D088
:101D7000E969069888475FEACB7012D022E0A9692A
:101D80000698641C88477F1E01D4002803DAE9699D
:101D900006988847BCE72928F1D1641CCAF800409E
:101DA000E9E71BF0240F07D028680499031D2B6076
:101DB0000068C0E9001805E02868021D2A60006874
:101DC000C0F800902046A5E70000F07F494E464944
:101DD0004E4954590000000010B50446AFF300808E
:101DE0002046BDE81040FEF7CFBA00000149182098
:101DF000ABBEFEE7260002003A2800D2303820F0C1
:101E00002002412A01D3A2F13700884201D34FF0CA
:101E1000FF30704700000000B0B50446006842F291
:101E2000001140F48070C4F20201884218D142F2DD
:101E30000830C4F20200006810F4403F18D004F0EB
:101E400063FC61680546B1F5803F05D0B1F5403FC0
:101E50002CD0B1F5003F2AD1080CB5FBF0F526E0F7
:101E600046F20830C5F60200006810F4403FE6D1A3
:101E70004FF40020002103F0BBFB61680546A1F58B
:101E800080224FEAB2420A2A11D8DFE802F007079F
:101E90000707070755535951570000BF6FF001005E
:101EA00000EA5140B5FBF0F501E000BFAD0803F0DA
:101EB00073F841F2030188420ED8206842F60151BE
:101EC000C0F231118D4281682CBF41F4807121F440
:101ED00080718160B0BD00BF4BF62140C0F2BE00F2
:101EE000854205D82068816821F440718160B0BDC9
:101EF00047F64100C0F27D10854207D820680122D4
:101F0000816862F309218160B0BD00BF20684FF293
:101F10008101C0F2FA218D42816805D8022262F364
:101F200009218160B0BD00BF41F440718160B0BD46
:101F3000ED09BCE76D09BAE72D09B8E72D0AB6E748
:101F4000AD09B4E70000000070B50446006882687F
:101F5000836802F0040203F00803D2186CD0C26850
:101F6000920121D5627D012A1ED1227D012A1BD139
:101F70000168490613D44DF60441C0F20C0104393E
:101F800050D0026852065CBF02685FEA426206D423
:101F9000026852065CBF02685FEA4262EFD54021E8
:101FA0000160012106E000BF022903D102210826B9
:101FB00012E000BF826852070AD58268920707D4F0
:101FC0004FF6C0738268C7F6FF731A401032826002
:101FD00001294FF0040610D0826812070AD58268E2
:101FE000920707D44FF6C0738268C7F6FF731A4092
:101FF00020328260032908BF0C2602F0D5FF216839
:102000008968314218D0054603E000BF806830423D
:1020100012D002F0C9FF401B06282068F6D3816861
:102020003142F3D0606D40F010006065A06D40F06B
:102030000100A065012070BD002070BD00000000FF
:10204000F0B581B0044600688168C9074AD14FF6EF
:10205000C0778168C7F6FF7707F17F0211420BD086
:10206000606D40F010006065A06D40F00100A0655B
:10207000012001B0F0BD00BF8168394041F001018D
:10208000816002F091FF42F2000246F20836C4F28B
:102090000202216802F5807302F54275C5F6020658
:1020A000994208BF2E46914208BF2E4699420546E6
:1020B000306814D110F01F0014D110E08868C007F8
:1020C00004D18868384040F00100886002F06CFF5D
:1020D000401B2168032802D30868C007C0D00868E5
:1020E000C007EBD0002001B0F0BD000000000000F0
:1020F000FEE700000000000040F24460C2F2004031
:1021000001F03EBD0000000040F2BC60C2F20040A1
:1021100001F036BD0000000040F23470C2F2004011
:1021200001F02EBD0000000040F2AC70C2F2004091
:1021300001F026BD0000000040F62400C2F200407D
:1021400001F01EBD0000000040F20F42D0F800C0B8
:10215000C4F20202944511DC6F22C4F202029445DB
:1021600022DC3F22C4F20202944539DC1022C4F280
:10217000020294455AD0282254E000BF40F26F4238
:10218000C4F2020294451BDC40F23F42C4F2020258
:1021900094452DDC40F21042C4F20202944545D031
:1021A00040F228423EE000BF9F22C4F20202944562
:1021B00028DC7022C4F20202944537D0882231E034
:1021C00040F29F42C4F20202944523DC40F2704286
:1021D000C4F20202944529D040F2884222E000BFB6
:1021E0004022C4F20202944520D058221AE000BFD7
:1021F00040F24042C4F20202944517D040F25842E5
:1022000010E000BFA022C4F2020294450ED0B82212
:1022100008E000BF40F2B842C4F20202944505D083
:1022200040F2A042C4F20202944517D10CF0F80229
:102230004AF6AB23103ACAF6AA23A2FB03310AA33B
:102240005F2AC1F302115B5C40F2FF312CEA01010D
:10225000C36588BF04318165084670472CF0FF01D3
:1022600081650846704700BF00061016000610166C
:1022700070B540F26F44D0F800C0C4F20204D0F848
:1022800058E0A4451ADC9F25C4F20205AC4533DCB6
:102290005725C4F20205AC455ADC1025C4F20205EC
:1022A000AC4500F098802825C4F20205AC4500F04A
:1022B00092804025C4F202058AE000BF45F22F4516
:1022C000C5F60205AC452DDC40F2B745C4F2020567
:1022D000AC454BDC40F27045C4F20205AC457AD007
:1022E00040F28845C4F20205AC4574D040F2A045E6
:1022F000C4F202056CE000BF40F22745C4F20205BB
:10230000AC4543DCA025C4F20205AC4563D0B8253A
:10231000C4F20205AC455ED040F21045C4F202059D
:1023200056E000BF45F26B45C5F60205AC453FDC03
:1023300045F23045C5F60205AC454CD045F2444562
:10234000C5F60205AC4546D045F258453EE000BF13
:102350005825C4F20205AC453DD07025C4F20205F3
:10236000AC4538D08825C4F2020531E040F2B845CA
:10237000C4F20205AC452ED045F20845C5F602056B
:10238000AC4528D045F21C4520E000BF40F228456E
:10239000C4F20205AC451ED040F24045C4F202052D
:1023A000AC4518D040F25845C4F2020510E000BF19
:1023B00045F26C45C5F60205AC450CD045F2944596
:1023C000C5F60205AC4506D045F28045C5F60205C6
:1023D000AC4540F0D080456EC66E002E866E6E60B5
:1023E0001CBFD0E91C566E60A44515DC9F24C4F2C6
:1023F0000204A4452CDC5724C4F20204A44551DC99
:102400001024C4F20204A4457AD02824C4F20204A1
:10241000A44575D040246FE045F22F44C5F6020470
:10242000A44529DC40F2B744C4F20204A44545DCCB
:1024300040F27044C4F20204A44561D040F28844E2
:10244000C4F20204A4455BD040F2A04454E000BFB3
:1024500040F22744C4F20204A4453FDCA024C4F2A5
:102460000204A4454CD0B824C4F20204A44547D0C9
:1024700040F2104440E000BF45F26B44C5F6020450
:10248000A44555DC45F23044C5F60204A44561D0AC
:1024900045F24444C5F60204A4455BD045F25844D5
:1024A00054E000BF5824C4F20204A44528D070248C
:1024B000C4F20204A44523D088241DE040F2B844AD
:1024C000C4F20204A4451BD045F20844C5F6020438
:1024D000A4453FD045F21C4438E000BF40F22844F8
:1024E000C4F20204A4450BD040F24044C4F20204FA
:1024F000A44505D040F25844C4F20204A4453AD1A0
:102500008468C06D00F01F003F2505FA00F0CEF88A
:102510000800DCF80000402C20F48020CCF80000FB
:10252000CCF8043023D1CCF80820CCF80C1070BDC6
:1025300045F26C44C5F60204A4450BD045F2804434
:10254000C5F60204A44505D045F29444C5F602043C
:10255000A44510D1C46D012504F01F04806805FA5C
:1025600004F4CEF804404028CCF80430DBD0CCF89A
:102570000810CCF80C2070BD70470000000000006F
:1025800002F012BC00000000EFF3108072B600BF32
:10259000FEE700000000000044F60400C5F602005B
:1025A000816841F0020181600168890409D40168F1
:1025B00089045CBF01685FEA814102D40168890433
:1025C000F2D570470000000010B52DED0E8B0446CB
:1025D00090F80C02002800F089809FED700A94EDBD
:1025E00010EA2EEE009A94ED0FDA2DEE008AB0EE8E
:1025F000490A09F037FFB0EE40AAB0EE480A09F0E8
:1026000031FFB0EE40BAB0EE490A09F083FEB0EEF9
:1026100040CAB0EE480A09F07DFEB0EE408AB0EE46
:10262000490A09F077FE94ED0A1A94ED092A0BEE97
:102630004C1A94ED0B3A94ED7E4A3AEE022A08EEDB
:10264000403A9FED5B5AB3EE0E6A31EE440A94EDC8
:102650007D1A32EE411A94ED7F2A33EE422A94ED30
:10266000814A20EE000AB6EE003A3EEE444AA1EE60
:10267000010A94ED801A3DEE411AB0EEC44AA2EE72
:10268000020A9FED472AB0EEC11A81FE041A9FED9F
:10269000454AB1EEC00A31EE055A30EE022A22EE6A
:1026A000032AB7EE003A82FE432A22EE042A9FED67
:1026B0003E4AB4EE440A9FED3D4AF1EE10FA85EE33
:1026C000060A32FE042A80FE430A9FED3A3AB0EE33
:1026D000424AA0EE034A9FED380AB4EE401AF1EEEA
:1026E00010FA34FE020ABDEC0E8B10BD40F2805091
:1026F000C2F2004001888A087C2A07D80131018093
:102700009FED2A0ABDEC0E8B10BD00BF9FED231A72
:1027100094ED102A22EE019A94ED0F0A20EE018A20
:1027200084ED800A84ED812A606CB0EE490AC4F819
:10273000080209F097FEB0EE40AAB0EE480A09F090
:1027400091FEB0EE40BAB0EE490A09F0E3FDB0EEFA
:1027500040CAB0EE480A09F0DDFDB0EE408AB0EEA6
:10276000490A09F0D7FD94ED0A1A94ED0B2A0BEEF5
:102770004C1A94ED093A08EE402A01203AEE030A79
:1027800084F80C0284ED7D0A84ED7E1A84ED7F2AA4
:102790009FED060ABDEC0E8B10BD00BF35FA8E3CD6
:1027A0009A9999BFCDCC4C3F9A99993F000000006F
:1027B000000070C2CDCC4C3E000070420000000012
:1027C00090F85020012A01D10220704710B582B044
:1027D00042F2083400230193C4F202040093A4F5EA
:1027E00042720368934227D14FF6006ECFF6FF7E08
:1027F00054F80E209B681A4352071DD4D1F800C02C
:102800002268BCF1000F22F4404323D04A681A43E7
:1028100022604FF60052CFF6FF72A25854F80E30E5
:102820001A43D20726D1226840F61F739A4389685B
:10283000114341EA0C011CE0416D41F0200141656A
:102840000121002280F8502002B0BDE81040084667
:10285000704700BF4FF600512360CFF6FF716158FB
:1028600054F80E201143C90704D1216840F61F72A5
:10287000914321600021E4E7F0B581B0002200928D
:1028800090F85020012A03D10221084601B0F0BD82
:102890000768012380F85030BB685B0700F1968120
:1028A0000C684FF6FF7CB4F1FF3FC0F20F0C4FEA0B
:1028B00094630FDD94FAA4F214EA0C0FB2FA82F2D8
:1028C00008BFA20E012402F01F0204FA02F2FC6902
:1028D0002243FA614A681F2603F01F03C2F3012452
:1028E00002F01F02964007EB840403FA02F2256B04
:1028F00025EA060632432263BA68BB6802F0040286
:1029000003F00803D21840F096800A6807258E6805
:10291000C2F34063C2F3045207EB830395405C6942
:1029200006FA02F224EA05052A435A6141F200023E
:10293000C5F60042126802F07042B2F1805F33D1F6
:102940004A69FB680E2606EA530302FA03F30C6990
:10295000042C39D007F160020E6806F0F84652F8F0
:102960002450334305F000452B4342F824300B69D3
:102970004E7E52F82350012E25F0004508BF05F188
:10298000004542F823500A7E0B693E69013A03F084
:102990001F03B2FA82F226F4F0465209D2029A409C
:1029A00032433A6147E000BFFA684B69FE68D206DD
:1029B0004FEA560402D404F00E0201E004F00802CB
:1029C00093400C69042CC5D13A6E0B6802F0F842B2
:1029D0009B069A4218D13A6E22F000423A667A6E0D
:1029E00002F0F8429A4214D0BA6E02F0F8429A42CB
:1029F00018D1BA6E22F00042BA66FA6E02F0F842BE
:102A00009A4214D017E000BF7A6E02F0F8429A4260
:102A1000EAD17A6E22F000427A66BA6E02F0F8428B
:102A20009A42E6D0FA6E02F0F8429A4203D1FA6E68
:102A300022F00042FA66BA68D20779D1D1F800E0F4
:102A40000023C968D7F8C0200EEA0C04C4F2527300
:102A5000A24301F018042CFA04F603F52D0506EA4A
:102A60000E06A94246EA0201C7F8C0105DD142F243
:102A70000011C4F202018F4226D042F20001C4F2DA
:102A800002018F423CD11F21C1F2F0418E4540F33B
:102A9000C38040F2FF71C2F630618E4540F3A980D9
:102AA00040F60001C2F630618E4500F0478141F2E8
:102AB0000001C3F260218E4500F036810021C4F28E
:102AC00021318E451DD045E11F21C1F2F0418E45D7
:102AD00000F388800721C0F690418E4500F3AA805C
:102AE0000221C0F230418E4500F0A1800421C0F6E1
:102AF00060018E4540F02E814023C1F6201300E096
:102B0000002393FAA3F143F6C132B1FA81F1C0F286
:102B10000A0213424FF0010208BF990E01F01F0193
:102B200002FA01F1FA691143F961BEF1FF3F01DDDB
:102B3000002150E042F2000146F2083CC4F20201DA
:102B4000C5F6020C01F5807201F5427397426246A8
:102B500008BF1A468F4242F2001408BF1A4647F4D3
:102B60008073C4F20204A342136827D18A68D1F8A3
:102B700008111143C90729D1002103F0E074CCF6F4
:102B800084318E4508BF13F4000163D00021CCF2DC
:102B900052718E4540F0A0800021B1EB146F40F0DF
:102BA0009B80ACF542718F42C2D1DCF8001021F05D
:102BB000E071214341F08071A5E000BF4FF6005164
:102BC000CFF6FF715CF80110C907D5D0416D41F017
:102BD000200141650121002280F85020084601B003
:102BE000F0BD00BF40F2FF71C2F630618E4500F3C8
:102BF0008F802021C1F2F0418E4500F0A58040F287
:102C00000041C2F600218E4540F0A48040F600034A
:102C1000C2F6306375E700BF0721C0F690418E45CC
:102C200008DC0221C0F230418E457FF45FAF012302
:102C300067E700BF0821C0F690418E457AD0102189
:102C4000C1F2C0018E4540F0858040F20013C2F20F
:102C5000801356E7ACF542718F427FF469AFDCF820
:102C6000001042F6635221F0E071C0F23E5221435F
:102C700041F40001CCF8001040F20801C2F200411A
:102C800009688909A1FB02129109022202EB4101A4
:102C90000091009900293FF44BAF00990139009150
:102CA000009900293FF444AF00990139009100993F
:102CB00000293FF43DAF00990139009100990029A6
:102CC0003FF436AF009901390091009900294FF087
:102CD0000001E2D17FE700BFACF542718F424FF0B7
:102CE00000017FF478AF0022CCF6B872964508BF99
:102CF00013F480027FF46FAFDCF8001021F0E07174
:102D0000214341F48001CCF80010002163E700BFAB
:102D100040F60001C2F630618E450FD041F200014D
:102D2000C3F260218E4515D142F20003C3F29063D5
:102D3000E7E600BF8023C1F65053E2E641F200030C
:102D4000C3F26023DDE600BF40F20023C2F2B053BD
:102D5000D7E600BF00210023C4F684318E4504BFAE
:102D60000023C4F6B873CCE60068006C704700001E
:102D700070B582B0044600284FF0000001902DD0BD
:102D8000606D30B9204600F01FF90020A06584F87E
:102D900050002068816889004FF6C071C5F6FF7148
:102DA00002D582680A4082608268D20031D482688B
:102DB00001F18051114042F6635241F0805181602F
:102DC00040F20801C0F23E52C2F20041096889098E
:102DD000A1FB0212012101EB921105E00126304610
:102DE00002B070BD019901390191019989B1019930
:102DF00001390191019961B101990139019101995B
:102E000000291FBF019901390191019918BF0029BB
:102E1000E8D18168C90009D4616D012641F0100133
:102E20006165A16D41F00101A16500E000268168A6
:102E3000626D02F0100201F004018918616D40F02A
:102E4000918021F48171023161658168C90728D1BF
:102E500042F2001240F48071C4F20202914242F246
:102E60000001C4F2020140F0A5808A68D1F808315F
:102E70001A43D20715D101F5807201F5427346F26B
:102E8000080C9042C5F6020C1A4618BF0CF54072A9
:102E9000884208BF1A466068116821F47C11084313
:102EA000106002F079F841F2030100228842A06824
:102EB000A0F1100188BF0122B1FA81F1237F4909F5
:102EC0001140226B617D154616BF4D034A031C203D
:102ED000012B45EA034141EA020141EA000106D122
:102EE000206A0022CFF6FE7202EB40400143606A86
:102EF00020B100F47870A26A1043014320684CF2BC
:102F00000303CFF6F073C2681A401143C1608168B1
:102F1000826801F0040102F00802891836D1217D8F
:102F200044F20305E26AC36842EA813123EA0502FA
:102F30001143C16094F83810012901691AD14FF684
:102F40001E020125CFF60042CFF6FF751140D4E9ED
:102F50000F231943636C05EB02421143A26C194322
:102F6000114309E041F0100001266065304602B0CF
:102F700070BD00BF21F0010101610169626B21F0A8
:102F80007041114301612046FEF746FF2068E16869
:102F90000129026B22F00F0102D1A269013A11430B
:102FA00001630121606D61F301006065304602B08C
:102FB00070BD00BF46F20802C5F602021268D207D1
:102FC0003FF459AF6DE70000B0B5B8B0044602A8B1
:102FD0002830982100253395CDE93655CDE9345573
:102FE000FDF706FC42F200012068C4F202018842AB
:102FF00002D038B0B0BD00BF4FF4002002900420D2
:1030000004900C2005900620069002200395CDE93F
:103010000700C0200B95CDE9090502A802F0C0FC0D
:1030200008B1FFF7B1FA44F2D840C5F602000168D2
:1030300041F020010160016801F020010191019936
:10304000816841F001018160806833A900F00100CE
:103050000190019840203390032034900020359057
:103060000020C5F6020001F0B3FE38B0B0BD00008C
:103070002DE9F04F81B042F2000B46F20832C4F263
:10308000020B044600680BF580790BF54273C5F618
:10309000020248450D4608BF1A46584508BF1A4661
:1030A000D4F810801368B8F1080F03F01F0A01D19B
:1030B00008270DE0BAF1090F36D8012140F221238B
:1030C00001FA0AF119422FD0C068C00730D1042795
:1030D00001F06AFF21680A683A423DD10646681C41
:1030E00031D065B901F060FF2168086838420FD01F
:1030F00008683842F6D02FE0086838422CD101F039
:1031000053FF801B2168A842F6D908683842F3D1E2
:10311000606D40F004006065002084F850000320DA
:1031200001B0BDE8F08F00BF106810F4404FCED062
:10313000606D40F020006065012001B0BDE8F08FB7
:103140000868384208D10868384205D10868384212
:1031500004BF08683842F3D0606D40F400706065C9
:10316000C86810F4406F0FD1607D68B90868000727
:103170000AD5606D20F480706065606DC00403D472
:10318000606D40F001006065BAFA8AF0AAF10502AC
:10319000B2FA82F2AAF10903B3FA83F340095209A1
:1031A000494518BF8B4610435A091043C00758467B
:1031B00018BF08468B4508BF5846B8F1080FC068CD
:1031C00002D1082003E000BF400401D40C200860B5
:1031D000002001B0BDE8F08F70B542F2000446F265
:1031E0000836C4F20204016804F5807204F54273E3
:1031F000C5F60206914208BF1E46A14208BF1E4600
:1032000035688968490703D490F85010012901D125
:10321000022070BD012180F850100646FEF710FF15
:1032200020B1002086F85000012070BD316804F5FF
:103230008073726D994240F60173304618BF0C4698
:1032400022EA030305F01F0203F580737365631A16
:10325000B3FA83F318BF002A03D1466D26F4801613
:103260004665466D5B09F6044FF0000644BF866D67
:1032700026F006064FF0000586654FF01C060E602E
:1032800080F8505043B9092A18D8012303FA02F2F2
:1032900040F221231A4211D0CA68920104D5426D2E
:1032A000012363F30D3242654FF6C0728868C7F69A
:1032B000FF72104004308860002070BD416D41F401
:1032C00080114165E168890102D4002070BD00BF12
:1032D000416D012262F30D314165002070BD000097
:1032E000B0B5044690F85000012801D10220B0BDCD
:1032F00003212046012584F85050FEF725FE28B111
:10330000002084F850002846B0BD00BF20688168C6
:103310008268D20717D011F0020114D1816801F040
:103320000D01012926D14FF6C0728168C7F6FF72E0
:103330001140023181600321016001F035FE2168F6
:103340008968C90708D1204641F20112002550F8CA
:10335000541F914316E000BF054602E08068C00795
:10336000F1D001F021FE401B03282068F6D38168CC
:10337000C907F3D0606D012540F01000606520465C
:1033800050F8581F41F001010160002084F85000FE
:103390002846B0BD000000002DE9F041044601F0D0
:1033A00003FE1CB3054694F83500022822D140F2F2
:1033B0000F472668C4F2020740F26F48BE426FF022
:1033C0000E00C4F202081DDC6F21C4F202018E421D
:1033D0002ADC3F21C4F202018E4241DC1021C4F2FA
:1033E00002018E4263D028215CE000BF0120BDE8CD
:1033F000F08100BF802060650120002184F8341036
:10340000BDE8F08146451BDC40F23F41C4F20201B9
:103410008E422DDC40F21041C4F202018E4246D0B1
:1034200040F228413EE000BF9F21C4F202018E42DB
:1034300028DC7021C4F202018E4238D0882131E0AC
:1034400040F29F41C4F202018E4223DC40F27041FF
:10345000C4F202018E422AD040F2884122E000BF2D
:103460004021C4F202018E4221D058211AE000BF4F
:1034700040F24041C4F202018E4218D040F258415D
:1034800010E000BFA021C4F202018E420FD0B8218B
:1034900008E000BF40F2B841C4F202018E4206D0FB
:1034A00040F2A041C4F202018E42314607D13146BA
:1034B000306820F01E0041F8140B6FF080000A689D
:1034C000464500EA020008601ADC9F20C4F20200B0
:1034D000864233DC5720C4F2020086425ADC1020B8
:1034E000C4F20200864200F097802820C4F2020055
:1034F000864200F091804020C4F202008AE000BFC2
:1035000045F22F40C5F6020086422DDC40F2B7405E
:10351000C4F2020086424BDC40F27040C4F202006A
:10352000864279D040F28840C4F20200864273D0CD
:1035300040F2A040C4F202006CE000BF40F227401D
:10354000C4F20200864243DCA020C4F2020086429C
:1035500062D0B820C4F2020086425DD040F2104032
:10356000C4F2020056E000BF45F26B40C5F602000F
:1035700086423FDC45F23040C5F6020086424BD021
:1035800045F24440C5F60200864245D045F2584017
:103590003EE000BF5820C4F2020086423CD07020BA
:1035A000C4F20200864237D08820C4F2020031E023
:1035B00040F2B840C4F2020086422DD045F20840E5
:1035C000C5F60200864227D045F21C4020E000BF2D
:1035D00040F22840C4F2020086421DD040F2404032
:1035E000C4F20200864217D040F25840C4F20200F2
:1035F00010E000BF45F26C40C5F6020086420BD0D9
:1036000045F29440C5F60200864205D045F280405E
:10361000C5F60200864204D1206E016821F4807153
:103620000160306820F00100306000BF3068C007E2
:1036300010D001F0B9FC401B0628F7D320206065AC
:10364000032084F835000120002184F83410BDE8FF
:10365000F08100BF20680821B8424FF03F0211DC22
:103660006F23C4F2020398421EDC3F23C4F202031C
:10367000984235DC1023C4F20203984257D0282325
:1036800050E000BF40451BDC40F23F43C4F2020360
:1036900098422DDC40F21043C4F20203984246D017
:1036A00040F228433EE000BF9F23C4F20203984249
:1036B00028DC7023C4F20203984238D0882331E01A
:1036C00040F29F43C4F20203984223DC40F270436D
:1036D000C4F2020398422AD040F2884322E000BF9D
:1036E0004023C4F20203984221D058231AE000BFBD
:1036F00040F24043C4F20203984218D040F25843CB
:1037000010E000BFA023C4F2020398420FD0B823F8
:1037100008E000BF40F2A043C4F20203984206D082
:1037200040F2B843C4F20203984240F0C580D4E9A5
:10373000163707F01F07404502FA07F25A5019DC06
:103740009F21C4F20201884232DC5721C4F20201F7
:10375000884259DC1021C4F20201884200F09680B0
:103760002821C4F20201884200F090804021C4F276
:10377000020189E045F22F41C5F6020188422DDCA5
:1037800040F2B741C4F2020188424BDC40F2704182
:10379000C4F20201884279D040F28841C4F20201A9
:1037A000884273D040F2A041C4F202016CE000BF35
:1037B00040F22741C4F20201884243DCA021C4F256
:1037C0000201884262D0B821C4F2020188425DD071
:1037D00040F21041C4F2020156E000BF45F26B41D5
:1037E000C5F6020188423FDC45F23041C5F60201D0
:1037F00088424BD045F24441C5F60201884245D08B
:1038000045F258413EE000BF5821C4F2020188420F
:103810003CD07021C4F20201884237D08821C4F222
:10382000020131E040F2B841C4F2020188422DD0D9
:1038300045F20841C5F60201884227D045F21C41F5
:1038400020E000BF40F22841C4F2020188421DD0AE
:1038500040F24041C4F20201884217D040F2584180
:10386000C4F2020110E000BF45F26C41C5F602014E
:1038700088420BD045F29441C5F60201884205D03A
:1038800045F28041C5F6020188420BD1616EA26EFD
:10389000E06E4A6030B1016821F480710160D4E9C2
:1038A0001C014160012084F835000020002184F8CB
:1038B0003410BDE8F08100BF0421012237E7000089
:1038C000F0B190F83510022918D180B540F20F42BE
:1038D0000168C4F20202914214DC6F23C4F20203B5
:1038E000994225DC3F23C4F2020399423CDC1023B9
:1038F000C4F2020399425DD0282357E0802141653C
:103900000120704740F26F43C4F2020399421BDC6E
:1039100040F23F43C4F2020399422DDC40F21043CF
:10392000C4F20203994245D040F228433EE000BF72
:103930009F23C4F20203994228DC7023C4F20203DD
:10394000994237D0882331E040F29F43C4F202030A
:10395000994223DC40F27043C4F20203994229D019
:1039600040F2884322E000BF4023C4F202039942A0
:1039700020D058231AE000BF40F24043C4F20203B3
:10398000994217D040F2584310E000BFA023C4F280
:10399000020399420ED0B82308E000BF40F2B843BA
:1039A000C4F20203994205D040F2A043C4F20203DC
:1039B000994275D191424FF0040280F8352011DC14
:1039C0006F20C4F20200814222DC3F20C4F20200D8
:1039D000814239DC1020C4F20200814259D02820F3
:1039E00054E000BF40F26F40C4F2020081421BDC91
:1039F00040F23F40C4F2020081422DDC40F2104010
:103A0000C4F20200814244D040F228403EE000BFB0
:103A10009F20C4F20200814228DC7020C4F2020020
:103A2000814236D0882031E040F29F40C4F202004B
:103A3000814223DC40F27040C4F20200814228D06F
:103A400040F2884022E000BF4020C4F202008142E0
:103A50001FD058201AE000BF40F24040C4F20200DC
:103A6000814216D040F2584010E000BFA020C4F2BE
:103A7000020081420DD0B82008E000BF40F2B840FB
:103A8000C4F20200814204D040F2A040C4F202001D
:103A90008142086820F001000860002080BD00BF5E
:103AA0000A6822F00E020A6045F25742C5F6020289
:103AB00091420A6822F001020A600FDC45F22F42AF
:103AC000C5F60202914219DC45F20842C5F602022F
:103AD000914229D045F21C4222E000BF45F27F42CC
:103AE000C5F60202914213DC45F25842C5F60202C5
:103AF000914219D045F26C4212E000BF45F23042CB
:103B0000C5F6020291420FD045F2444208E000BFE0
:103B100045F29442C5F60202914205D045F2804238
:103B2000C5F6020291421AD1D0E9181CD0E916E379
:103B30000A6822F480720A6003F01F01012202FA6F
:103B400001F1CEF80410816ECCF80410C16E31B1D1
:103B50000A6822F480720A60D0E91C124A600121CE
:103B600080F83510016D0022002980F8342094D0AF
:103B70008847002080BD0000406D704700000000B5
:103B80002DE9F04782B00021019140F2080148F28E
:103B9000B513C2F20041C1F64E33856D40F26F4954
:103BA0000A680168C4F202092E68A2FB032849458D
:103BB0002A6815DC9F22C4F2020291422CDC5722B3
:103BC000C4F20202914251DC1022C4F2020291427C
:103BD0007BD02822C4F20202914276D040226FE0CC
:103BE00045F22F43C5F60203994229DC40F2B74360
:103BF000C4F20203994245DC40F27042C4F2020270
:103C0000914262D040F28842C4F2020291425CD0FA
:103C100040F2A04254E000BF40F22742C4F2020248
:103C200091423FDCA022C4F2020291424DD0B82260
:103C3000C4F20202914248D040F2104240E000BF7C
:103C400045F26B43C5F60203994275DC45F23043F9
:103C5000C5F60203994200F0828045F24443C5F65E
:103C6000020399427BD045F2584373E05822C4F2D4
:103C70000202914229D07022C4F20202914224D061
:103C800088221DE040F2B843C4F2020399421CD0DE
:103C900045F20843C5F60203994260D045F21C4341
:103CA00058E000BF40F22842C4F2020291420CD018
:103CB00040F24042C4F20202914206D040F2584221
:103CC000C4F20202914240F05383C26D082302F015
:103CD0001F0240F20F4A9340C4F2020A334200F03E
:103CE000DE8051454FF0040412DC6F27C4F2020756
:103CF000B9426DDC3F27C4F20207B94200F39C8051
:103D00001027C4F20207B94200F0BD802827B5E0B1
:103D1000494569DC40F23F47C4F20207B94200F36B
:103D2000938040F21047C4F20207B94200F0AB8022
:103D300040F22847A2E000BF45F26C43C5F60203FB
:103D400099420CD045F28043C5F60203994206D051
:103D500045F29443C5F60203994240F009830B688B
:103D6000C76D07F01F070426BE40164218BF13F0A8
:103D7000040423D10226BE40164218BF13F00204E9
:103D800042D1FA40120740F1F38213F0080200F02A
:103D9000EF820A6822F00E020A60012101FA07F29E
:103DA0006A60416580F83510C16C00294FF000024F
:103DB00080F8342040F0D882DAE200BF1A046E6046
:103DC00034D49A0636D40A6822F004020A6031E03C
:103DD0009F27C4F20207B94240DC7027C4F20207F1
:103DE000B94250D0882749E040F29F47C4F2020709
:103DF000B9423BDC40F27047C4F20207B94242D0FC
:103E000040F288473AE000BF1A046E6000F1B482C5
:103E10009A0600F1B5820A6822F00A020A600121BE
:103E200080F83510002180F83410A9E2D90301D4BC
:103E3000816C98E2016C96E24027C4F20207B94215
:103E400021D058271AE000BF40F24047C4F20207D1
:103E5000B94218D040F2584710E000BFA027C4F282
:103E60000207B9420FD0B82708E000BF40F2A047D0
:103E7000C4F20207B94206D040F2B847C4F20207C2
:103E8000B94218BF08240F68274208D00F6827F0EE
:103E900004070F60AB60436D43F0010343650123EA
:103EA000934033426FD0514510DC6F27C4F20207B4
:103EB000B9421DDC3F27C4F20207B94234DC1027A7
:103EC000C4F20207B94256D028274FE049451BDC0F
:103ED00040F23F47C4F20207B9422DDC40F21047DE
:103EE000C4F20207B94246D040F228473EE000BF84
:103EF0009F27C4F20207B94228DC7027C4F20207E8
:103F0000B94238D0882731E040F29F47C4F2020717
:103F1000B94223DC40F27047C4F20207B9422AD00A
:103F200040F2884722E000BF4027C4F20207B942AE
:103F300021D058271AE000BF40F24047C4F20207E0
:103F4000B94218D040F2584710E000BFA027C4F291
:103F50000207B9420FD0B82708E000BF40F2A047DF
:103F6000C4F20207B94206D040F2B847C4F20207D1
:103F7000B94240F007824F693F0604D5AB60436DFC
:103F800043F0020343650423934033426FD051450D
:103F900010DC6F27C4F20207B9421DDC3F27C4F2D0
:103FA0000207B94234DC1027C4F20207B94256D0E6
:103FB00028274FE049451BDC40F23F47C4F2020787
:103FC000B9422DDC40F21047C4F20207B94246D094
:103FD00040F228473EE000BF9F27C4F20207B942E3
:103FE00028DC7027C4F20207B94238D0882731E0B4
:103FF00040F29F47C4F20207B94223DC40F2704707
:10400000C4F20207B9422AD040F2884722E000BF3A
:104010004027C4F20207B94221D058271AE000BF56
:1040200040F24047C4F20207B94218D040F2584764
:1040300010E000BFA027C4F20207B9420FD0B82792
:1040400008E000BF40F2A047C4F20207B94206D020
:1040500040F2B847C4F20207B94240F09B810F68B2
:10406000BF0704D5AB60436D43F0040343651023E1
:1040700003FA02F2324200F0828051454FF0080309
:1040800010DC6F27C4F20207B9421DDC3F27C4F2DF
:104090000207B94234DC1027C4F20207B94256D0F5
:1040A00028274FE049451BDC40F23F47C4F2020796
:1040B000B9422DDC40F21047C4F20207B94246D0A3
:1040C00040F228473EE000BF9F27C4F20207B942F2
:1040D00028DC7027C4F20207B94238D0882731E0C3
:1040E00040F29F47C4F20207B94223DC40F2704716
:1040F000C4F20207B9422AD040F2884722E000BF4A
:104100004027C4F20207B94221D058271AE000BF65
:1041100040F24047C4F20207B94218D040F2584773
:1041200010E000BFA027C4F20207B9420FD0B827A1
:1041300008E000BF40F2A047C4F20207B94206D02F
:1041400040F2B847C4F20207B94218BF04230F680F
:104150001F4214D0AA600A6852030A6808D4D20524
:1041600008D40A6822F008020A60016C21B906E04E
:10417000110351D4016C11B1044688472046C16D2A
:1041800001F01F02202101FA02F3334200F0AF8058
:1041900001681027514511DC6F26C4F20206B142B6
:1041A0001EDC3F26C4F20206B14239DC1026C4F2FE
:1041B0000206B1425BD0282654E000BF49451BDC13
:1041C00040F23F46C4F20206B14231DC40F21046F2
:1041D000C4F20206B1424AD040F2284642E000BF93
:1041E0009F26C4F20206B1422CDC7026C4F20206FD
:1041F000B1423CD0882635E040F29F46C4F2020628
:10420000B14227DC40F27046C4F20206B1422ED021
:1042100040F2884626E000BF816C0029ACD1AEE7B1
:104220004026C4F20206B14221D058261AE000BF4F
:1042300040F24046C4F20206B14218D040F258465D
:1042400010E000BFA026C4F20206B1420FD0B8268B
:1042500008E000BF40F2A046C4F20206B14206D018
:1042600040F2B846C4F20206B14218BF02270E68F7
:104270003E423CD0AB6090F83530042B0B681DD12A
:1042800023F016030B604B6923F080034B61036C32
:104290000BB9836C1BB10B6823F008030B603F2143
:1042A0009140A960012180F83510016D00294FF07F
:1042B000000280F8342057D15AE000BF5A030A6840
:1042C0000CD4D2050ED40A6822F010020A60012133
:1042D00080F83510002180F8341003E0110301D478
:1042E000416C00E0C16B11B1044688472046416D26
:1042F00000293DD0416DC90734D0042180F8351024
:1043000001684FEA98220B6823F001030B60019BC0
:104310000133019393421AD80B68DB0717D0019B36
:1043200001330193934212D80B68DB070FD0019B36
:104330000133019393420AD80B68DB0707D0019B36
:1043400001330193934202D80B68DB07DFD1096880
:10435000C9074FF0030108BF012180F83510002183
:1043600080F83410C16C19B102B0BDE8F0470847BD
:1043700002B0BDE8F08700BFD90301D4416CF2E779
:10438000C16BF0E70B680423934033427FF4FFAD29
:104390006DE600BF0B686AE62DE9F041044600F0C7
:1043A00003FEFCB140F26F4805462068C4F20208E3
:1043B00040451BDC9F21C4F20201884232DC5721B8
:1043C000C4F20201884259DC1021C4F20201884281
:1043D00000F083802821C4F20201884200F07D8031
:1043E000402175E00120BDE8F08100BF45F22F417A
:1043F000C5F60201884229DC40F2B741C4F202014D
:10440000884247DC40F27041C4F20201884264D025
:1044100040F28841C4F2020188425ED040F2A041DD
:1044200056E000BF40F22741C4F20201884241DC5D
:10443000A021C4F2020188424FD0B821C4F2020187
:1044400088424AD040F2104142E000BF45F26B4141
:10445000C5F60201884200F3B38045F23041C5F64B
:104460000201884200F0BF8045F24441C5F60201D6
:10447000884200F0B88045F25841AFE05821C4F2BC
:104480000201884229D07021C4F20201884224D05E
:1044900088211DE040F2B841C4F2020188421CD0DC
:1044A00045F20841C5F60201884200F09C8045F2C1
:1044B0001C4193E040F22841C4F2020188420CD032
:1044C00040F24041C4F20201884206D040F2584115
:1044D000C4F20201884240F01B81022184F83510A9
:1044E000002184F83410016821F00101016000BF4F
:1044F00020680168C9070DD000F056FD401B062852
:10450000F6D320206065032084F835000120BDE843
:10451000F08100BF48F23F0204F108060168CFF6BF
:104520001062114065694CCE1143A2691943E369D9
:104530003143266A0D43616A2B43042943EA06038B
:1045400043EA020303D1D4E90B652E43334341F21E
:104550000006C5F600463668B6F1005F0FD3656801
:10456000A5F129061F2E00F235820127B7403F260C
:10457000CCF2C036374200F02D8243F48013036042
:104580000429436923F0070341EA030140F0DC807A
:10459000D4E90A53002B41EA050100F0D580B2F5B9
:1045A000005F00F0B780002A40F0C080022D00F0CC
:1045B000C080012D00F0B480002D00F0BA80C3E06F
:1045C00045F26C41C5F6020188420CD045F28041AB
:1045D000C5F60201884206D045F29441C5F60201B3
:1045E000884240F0958004F1080E022184F83510CD
:1045F000002184F834100168A3699EE80450A2F1F8
:104600008005E769B5FA85F566696D09402A4FEAC4
:10461000853543EA07026FF3101142EA060208BF2C
:10462000102541EADC0142EA0E02236A294341EAED
:10463000D20141EA131140F80819C0B2CD21484314
:104640003C2101EA9020E0652046FDF77DFDE16D0B
:10465000012201F01F0102FA01F14160206840458A
:1046600000F381809F21C4F20201884214DC5721AB
:10467000C4F20201884227DC1021C4F20201884200
:1046800000F0C7802821C4F20201884200F0C180F6
:104690004021C4F20201B9E040F22741C4F2020114
:1046A000884221DCA021C4F20201884200F0B180DE
:1046B000B821C4F20201884200F0AB8040F2104100
:1046C000C4F20201A2E000BF5821C4F202018842F4
:1046D00000F09F807021C4F20201884200F09980AE
:1046E0008821C4F2020191E040F22841C4F20201A3
:1046F000884200F08E8040F24041C4F202018842BC
:1047000000F0878040F25841C4F202017EE000BF11
:104710004020F7E6032D17D8DFE805F00E0B0E0258
:10472000A3F1C072B2FA82F2520904E0032D03D35E
:104730000AD1C3F300623AB140206065012084F8D9
:104740003500BDE8F08100BF41612046FDF7FCFC6B
:10475000E16D3F2201F01F0102FA01F18160206842
:1047600040457FF77FAF45F22F41C5F602018842F1
:1047700016DC40F2B741C4F20201884226DC40F266
:104780007041C4F20201884243D040F28841C4F231
:10479000020188423DD040F2A041C4F2020135E05E
:1047A00045F26B41C5F6020188421FDC45F23041FB
:1047B000C5F6020188422CD045F24441C5F60201FB
:1047C000884226D045F258411EE000BF40F2B84171
:1047D000C4F2020188421CD045F20841C5F602012C
:1047E000884216D045F21C410EE000BF45F26C41F4
:1047F000C5F6020188420CD045F29441C5F602018B
:10480000884206D045F28041C5F60201884240F058
:10481000D98045F2574C45F6FC0EC5F6020CC5F69C
:10482000020E60450EDC45F22F41C5F602018842BA
:1048300018DC45F20841C5F60201884228D045F24D
:104840001C4121E045F27F41C5F60201884213DC9C
:1048500045F25841C5F60201884219D045F26C4133
:1048600012E000BF45F23041C5F6020188420FD088
:1048700045F2444108E000BF45F29441C5F602010B
:10488000884205D045F28041C5F60201884247D1F1
:1048900000F0FC014CF6CD420839CCF6CC42A1FB2D
:1048A0000212AEF1FC05AEF17C061309A26803F01A
:1048B0001F01802A4FF0010205EB8305256602FAED
:1048C00001F26666A26605D1002060602860726011
:1048D0001EE000BF6368D9B25F1E072F29607260B7
:1048E00016D84E1E082E19D260450EF1440237DC50
:1048F00045F22F41C5F60201884241DC45F20841EC
:10490000C5F60201884251D045F21C414AE000BF81
:1049100000206067C4E91B0054E000BFE06E4CE07B
:1049200000F0F8014AF6AB221039CAF6AA22A1FB20
:10493000021240F20F43C4F2020308251109984203
:1049400003F1AA060B4688BF05EB121340F60005DB
:10495000B042C4F2020505F1800628BF0B46A5E768
:1049600045F27F41C5F60201884213DC45F2584109
:10497000C5F60201884219D045F26C4112E000BF31
:1049800045F23041C5F6020188420FD045F244415C
:1049900008E000BF45F28041C5F60201884205D01B
:1049A00045F29441C5F6020188421BD10EEB83000B
:1049B0000121E066B1402267616700210160D4E90E
:1049C0001C01416000206065012184F83510BDE8BC
:1049D000F08100BFA5F14F07042F38BF43F48013C7
:1049E000CDE500BF40F60000C4F2020000F1FC0E6D
:1049F00000F5A072DAE7000030B110B590F834404D
:104A0000012C03D1022010BD01207047012480F841
:104A1000344090F83540012C2CD1022480F83540E8
:104A200000244465D0F800C0DCF8004024F0010404
:104A3000CCF800400446FDF71BFC40F20F4C206808
:104A4000C4F2020C40F26F416045C4F2020119DC6D
:104A50006F23C4F20203984226DC3F23C4F2020310
:104A600098423DDC1023C4F2020398425FD0282311
:104A700058E000BF4FF400614165002180F8341018
:104A8000012010BD88421BDC40F23F43C4F2020308
:104A900098422DDC40F21043C4F20203984246D003
:104AA00040F228433EE000BF9F23C4F20203984235
:104AB00028DC7023C4F20203984238D0882331E006
:104AC00040F29F43C4F20203984223DC40F2704359
:104AD000C4F2020398422AD040F2884322E000BF89
:104AE0004023C4F20203984221D058231AE000BFA9
:104AF00040F24043C4F20203984218D040F25843B7
:104B000010E000BFA023C4F2020398420FD0B823E4
:104B100008E000BF40F2B843C4F20203984206D056
:104B200040F2A043C4F20203984240F02F81036890
:104B30000B2262F344030360226C1AB1082302685B
:104B40001A430260884219DC9F22C4F2020290429A
:104B500032DC5722C4F20202904259DC1022C4F225
:104B60000202904200F096802822C4F20202904293
:104B700000F090804022C4F2020289E045F22F4208
:104B8000C5F6020290422DDC40F2B742C4F20202A6
:104B900090424BDC40F27042C4F20202904279D063
:104BA00040F28842C4F20202904273D040F2A04226
:104BB000C4F202026CE000BF40F22742C4F20202DB
:104BC000904243DCA022C4F20202904262D0B8229A
:104BD000C4F2020290425DD040F21042C4F20202DE
:104BE00056E000BF45F26B42C5F6020290423FDC40
:104BF00045F23042C5F6020290424BD045F24442A3
:104C0000C5F60202904245D045F258423EE000BF50
:104C10005822C4F2020290423CD07022C4F2020236
:104C2000904237D08822C4F2020231E040F2B8420A
:104C3000C4F2020290422DD045F20842C5F60202AB
:104C4000904227D045F21C4220E000BF40F22842AB
:104C5000C4F2020290421DD040F24042C4F202026D
:104C6000904217D040F25842C4F2020210E000BF56
:104C700045F26C42C5F6020290420BD045F29442D6
:104C8000C5F60202904205D045F28042C5F6020206
:104C9000904274D1236E1A68D20303D51A6842F485
:104CA00080721A60E36E1BB11A6842F480721A6057
:104CB000604511DC6F21C4F2020188421EDC3F21F5
:104CC000C4F20201884235DC1021C4F2020188429C
:104CD00055D0282150E000BF88421BDC40F23F4104
:104CE000C4F2020188422DDC40F21041C4F20201FC
:104CF000884244D040F228413EE000BF9F21C4F2E8
:104D00000201884228DC7021C4F20201884236D0B8
:104D1000882131E040F29F41C4F20201884223DC45
:104D200040F27041C4F20201884228D040F288412A
:104D300022E000BF4021C4F2020188421FD0582166
:104D40001AE000BF40F24041C4F20201884216D08E
:104D500040F2584110E000BFA021C4F20201884295
:104D60000DD0B82108E000BF40F2B841C4F2020102
:104D7000884204D040F2A041C4F202018842016896
:104D800041F001010160002010BD00BF0268052351
:104D900063F343020260226C002A3FF4D3AE042383
:104DA000CDE6000000000000B0B5044600F0FCF8BD
:104DB00040F200010546C2F20041621C097818BFAA
:104DC0000C4400BF00F0F0F8401BA042FAD3B0BD85
:104DD0002DE9F04F83B00F68002F00F0C98000F17B
:104DE000264642F2004506F1FF76C5F602050A2284
:104DF000A8424FEAB62540F2040C08BF092200F190
:104E000020030093092DC5F6000C38BF4FEAB622E7
:104E1000002400264FF0000801920AE008F1010882
:104E20000F6837FA08F206F1020604F1040400F0F4
:104E30009F80012202FA08FE17EA0E09EED0D1F88F
:104E400004B003220BF00307B2407D1E6FEA020A92
:104E5000012D11D88268CD6802EA0A02B5402A43C2
:104E60008260CBF30015426822EA0E0205FA08F5CB
:104E70002A43426004E000BF032F01D103271FE053
:104E8000C2688D6802EA0A02B540022F42EA0502B2
:104E9000C26015D16FF0030204F01C0502EA580B42
:104EA000009A0F2352F80BE0AB400F692EEA030380
:104EB000AF403B4342F80B30D1F804B00BF003078E
:104EC000026807FA06F302EA0A021BF4403F42EACC
:104ED00003020260A2D044F2F44340F2084EC5F649
:104EE0000203C5F6000E0F251A6842F002021A608E
:104EF0001A6802F00202029228F00302029B04F0F8
:104F00000C0352F80E709D40AF43019D05FA03F368
:104F10003B4342F80E304FF0B04EDEF800204B68B5
:104F200042EA0907DD0258BF22EA09079D02CEF8CE
:104F30000070DCF8002042EA090758BF22EA09079E
:104F40009D03CCF80070DCF8802042EA090758BFC6
:104F500022EA0907DB03CCF88070DCF87C2042EA07
:104F6000090758BF22EA0907CCF87C7056E700BF52
:104F700003B0BDE8F08F0000426902EA01039143EB
:104F800041EA034181617047002A08BF0904816139
:104F9000704700000000000041F20000C5F600402C
:104FA0000068000C7047000040F64050C2F200401C
:104FB000006870470000000040F2000040F64051D9
:104FC000C2F20040C2F2004100780A681044086052
:104FD000704700000000000080B5032000F0FCF8DE
:104FE00001F01AFC44F218414CF6BC43C5F602012C
:104FF000C0F600030A68C2F303229A5C096801F054
:105000000F0102F01F02595CD04040F20C02C2F2C4
:10501000004201F01F0120FA01F1116040F2080185
:10502000C2F2004108600F2000F00AF800281CBFFF
:10503000012080BD00F07CF8002080BD0000000051
:10504000B0B540F20005C2F200452978F1B104463E
:1050500040F20800C2F200404FF47A72B2FBF1F164
:105060000068B0FBF1F002F0AFF90F2C01464FF0F1
:1050700001000AD8002918BFB0BD4FF0FF30002250
:10508000214600F079F800206C60B0BD0120B0BD71
:1050900010B54EF6A05E4378CEF2000E90F800C038
:1050A0004EF8083CDEF8003023F00103CEF8003063
:1050B00043684EF8043C037BC27A817A447B120633
:1050C00042EA0372837B42EAC141C27B41EA8441E6
:1050D000447A41EA4341007A41EA024141EA04212B
:1050E00041EA400040EA0C00CEF8000010BD00008C
:1050F0004EF62450CEF20000BFF35F8F016821F41A
:10510000803101600021016770470000000000004D
:105110004EF6245140F00100CEF200010867086805
:1051200040F480300860BFF34F8FBFF36F8F70473C
:1051300081B044F2F440C5F60200016841F002017A
:105140000160006800F002000090009801B0704714
:10515000002848BF704700F01F01012202FA01F148
:105160004EF20012C0F34A10CEF2000242F82010B4
:10517000704700000000000070B54EF60C5C4FF068
:10518000FF36CEF2000C00F1604505F56445DCF811
:105190000030C3F3022E8EF00703042B28BF042334
:1051A000BEF1030406FA03F321EA030100F00F0342
:1051B00038BF0024043B0028634406FA04F048BFCB
:1051C00003F10C05A14022EA000008430001287009
:1051D00070BD0000000000004EF60C514FF6FF03BA
:1051E000CEF200010A681A4060F30A2242F08060A1
:1051F00040F0FD7008607047B0B544F60C05C5F688
:10520000020529684907296806D401F00701081A30
:1052100018BF0120B0BD00BF21F00701084328607E
:10522000FFF7C2FE044600BF55F8080C800407D4FF
:10523000FFF7BAFE001BB0F57A7FF5D90120B0BDAB
:105240000020B0BD0000000080B501F05DFA44F21E
:1052500020414CF6BC42C5F60201C0F600020968C6
:10526000C1F30211515C01F01F01C84080BD000074
:1052700080B544F23041C5F6020151F8083C51F8BE
:10528000082C51F804CCC2F3051E4A68BEF1000F89
:105290001AD0C2F3CC0203F0030300EE102A9FEDF4
:1052A0003A1AB8EE400A20EE010A9FED381ADFE8FC
:1052B00003F00323110700BF51F8302C92060DD4E0
:1052C0009FED331A18E000BF00218160C0E9001192
:1052D00080BD00BF9FED2F1A0EE000BF51F8302CAB
:1052E00049F20003C0F2D033C2F3C10223FA02F242
:1052F00001EE102AB8EE411A0A689FED273A6FF3C3
:105300005F2202EE102A5FEACC7203FE000A03EE6F
:1053100010EA0A68B8EE422AC2F34622B8EE433ACF
:10532000013230EE020AB7EE002A81EE031A30EEA7
:10533000020A21EE000A01EE102AB8EE411A80EEB0
:10534000011ABCEEC11A80ED001A0A68C2F30642C7
:10535000013201EE102AB8EE411A80EE011ABCEEBD
:10536000C11A80ED011A0968C1F30661013101EE2D
:10537000101AB8EE411A80EE010ABCEEC00A10EE17
:10538000101A816080BD00BF000000390024744AFB
:105390000024744C20BCBE4B000000000000000044
:1053A00080B544F2384EC5F6020E5EF8103C5EF849
:1053B000101C5EF80C2CC1F3053CDEF80410BCF1A7
:1053C000000F19D0C9089FED3C1AD20601EAE2711C
:1053D00003F003026FF35F3100EE101AB8EE400ADB
:1053E000DFE802F0022210225EF8381C89060DD494
:1053F0009FED331A18E000BF00218160C0E9001161
:1054000080BD00BF9FED2D1A0EE000BF5EF8381C76
:1054100049F20002C0F2D032C1F3C10122FA01F117
:1054200001EE101AB8EE411ADEF800109FED253A91
:105430006FF35F2102EE101ADEF80010C1F346216F
:10544000B8EE422A013100EE032A00EE10CAB7EE90
:10545000003AB8EE400A81EE000A32EE031A20EE5E
:10546000010A01EE101AB8EE411A80EE011ABCEEE4
:10547000C11A80ED001ADEF80010C1F306410131B7
:1054800001EE101AB8EE411A80EE011ABCEEC11AF4
:1054900080ED011ADEF80010C1F30661013101EE62
:1054A000101AB8EE411A80EE010ABCEEC00A10EEE6
:1054B000101A816080BD00BF0024744A20BCBE4B1E
:1054C0000024744C0000003980B544F2404EC5F60B
:1054D000020E5EF8183C5EF8181C5EF8142CC1F33E
:1054E000055CDEF80410BCF1000F19D0C9089FED6F
:1054F0003C1AD20501EAE27103F003026FF35F3157
:1055000000EE101AB8EE400ADFE802F00222102284
:105510005EF8401C89060DD49FED331A18E000BFD9
:1055200000218160C0E9001180BD00BF9FED2D1AF0
:105530000EE000BF5EF8401C49F20002C0F2D0321B
:10554000C1F3C10122FA01F101EE101AB8EE411ABD
:10555000DEF800109FED253A6FF35F2102EE101A7E
:10556000DEF80010C1F34621B8EE422A013100EE08
:10557000032A00EE10CAB7EE003AB8EE400A81EEF8
:10558000000A32EE031A20EE010A01EE101AB8EEFC
:10559000411A80EE011ABCEEC11A80ED001ADEF845
:1055A0000010C1F30641013101EE101AB8EE411AA4
:1055B00080EE011ABCEEC11A80ED011ADEF800106F
:1055C000C1F30661013101EE101AB8EE411A80EE06
:1055D000010ABCEEC00A10EE101A816080BD00BF47
:1055E0000024744A20BCBE4B0024744C00000039D7
:1055F00010B584B0024641F6FF7300209B1A70EB91
:10560000010329DB40F2FF339B1A70EB010351DAEF
:1056100082F480630B4300F0E58082F400630B4367
:1056200000F00E8182F48052114340F0A98144F2CF
:105630000041C5F60201086DC0F30232042A00F2EF
:10564000988148F20000C0F2BB00DFE812F00D01C3
:105650000F0127019901310147F6FF739B1A70EB87
:10566000010353DA82F400430B4300F0DB8082F441
:1056700080330B4300F0048182F40022114340F098
:105680007F8144F20041C5F60201886DC0F30142FA
:105690000020DFE812F0EB0005000D01750100BFEE
:1056A0000868800040F1658101A8FFF70DFF0398AD
:1056B00004B010BD82F480730B4353D082F40072A7
:1056C000114340F05D8144F20041C5F60201086DCE
:1056D000C0F38212042A00F24C8148F20000C0F2AA
:1056E000BB00DFE812F0C100C300DB004D01050084
:1056F000C86C0A68520700F04052086802D5002AB8
:1057000000F0DE80C00500F1EF80F7E082F4005386
:105710000B434FD082F48042114340F0318144F278
:105720000044C5F60204A06DC0F30270052800F223
:105730002081DFE810F00700190103010D01F700D7
:10574000270100BF00F0E0FF216A4CF6BC42C0F622
:105750000002C1F30211515C01F01F01C84004B006
:1057600010BD00BF44F20041C5F60201086D00F013
:105770000702042A00F2FD8048F20000C0F2BB00DC
:10578000DFE812F0720074008C00FE00060000BF1B
:10579000C86C0A68520700F04052086802D5002A17
:1057A00000F08E80C00540F1A980B2F1805F00F06A
:1057B0009E80A3E044F20040C5F60200016DC1F3F3
:1057C0000241052900F2D580DFE811F00600D00083
:1057D000BA00C800AE00DE0004B0BDE8104000F022
:1057E000BBBF00BF44F20041C5F60201886DC0F3A3
:1057F0004252042A00F2BD8048F20000C0F2BB0011
:10580000DFE802F032344CBE040000BFC86C0A6806
:10581000520700F04052086840F16480002A4FD0DF
:1058200060E000BF44F20041C5F60201086DC0F31C
:1058300001720020DFE802F0021874A40868A4E0F6
:1058400044F20041C5F60201886DC0F30262042AE9
:1058500000F28F8048F20000C0F2BB00DFE802F0E7
:1058600004061E90280000BF086811E008680001C7
:1058700040F17F8001A8FFF793FD019804B010BDAF
:1058800044F20040C5F60200C16C0068C90321D48F
:1058900080016ED501A8FFF7EBFC70E0086880007E
:1058A00067D501A8FFF710FE019804B010BD00BF36
:1058B000C86C0A68520700F04052086812D58AB9CD
:1058C000C0F3C10049F20001C0F2D03121FA00F06A
:1058D00004B010BD00014CD501A8FFF761FD03988D
:1058E00004B010BDC00509D5B2F1805F06D140F605
:1058F0000010C0F23D0004B010BD00BF0868B2F156
:10590000005F00F400314FF0000004BF47F6400094
:10591000C0F27D10002908BF084604B010BD00BFCA
:10592000086824E0206800E0006840F60011C00527
:10593000C0F23D0101EAE07004B010BD206800E053
:105940000068800015D501A8FFF7BEFD17E000BF75
:10595000206840070DD52068B2E700BF01684907FD
:1059600007D50068ACE700BF206800E000680001D0
:1059700002D4002004B010BD01A8FFF711FD029869
:1059800004B010BD206800E0006847F640018003C5
:10599000C0F27D1101EAE07004B010BD000000000B
:1059A0002DE9F0470446C07844F22C480007C5F6BC
:1059B000020828D5A06E4FEA305103292AD8DFE823
:1059C00001F0030B131B00BFD8F8001041F40031A5
:1059D000C8F8001010E000BF04F10800022104F034
:1059E0006FFA064680B906E004F12800022104F0AF
:1059F000FBFA064640B9A06ED8F8241021F44011F5
:105A00000843C8F8240000266078C00706D1354650
:105A10002FE000BF01266078C007F8D0A06D0428F1
:105A200058D83546DFE800F004140E0B0B0000BF19
:105A3000D8F80000354640F40030C8F800002F4682
:105A4000C5B90DE004F12800002104F0CDFA04E00E
:105A500004F10800002104F033FA05462F464DB941
:105A6000D8F82400A16D20F0070000250843C8F8ED
:105A7000240037466078800731D5E06D4FEAB010DA
:105A800004285FD8DFE800F004140E0A0A0000BF03
:105A9000D8F8000040F40030C8F800002E46FDB9E8
:105AA0000EE000BF04F12800002104F09DFA04E09C
:105AB00004F10800002104F003FA05462E467DB9E2
:105AC000D8F82400E16D20F4E07000250843C8F800
:105AD000240004E00125012760788007CDD43E46EC
